{
  "contractName": "Voting",
  "abi": [
    {
      "inputs": [
        {
          "internalType": "bytes32[]",
          "name": "candidateNames",
          "type": "bytes32[]"
        }
      ],
      "stateMutability": "nonpayable",
      "type": "constructor"
    },
    {
      "inputs": [
        {
          "internalType": "uint256",
          "name": "",
          "type": "uint256"
        }
      ],
      "name": "candidateList",
      "outputs": [
        {
          "internalType": "bytes32",
          "name": "",
          "type": "bytes32"
        }
      ],
      "stateMutability": "view",
      "type": "function"
    },
    {
      "inputs": [
        {
          "internalType": "bytes32",
          "name": "",
          "type": "bytes32"
        }
      ],
      "name": "votesReceived",
      "outputs": [
        {
          "internalType": "uint256",
          "name": "",
          "type": "uint256"
        }
      ],
      "stateMutability": "view",
      "type": "function"
    },
    {
      "inputs": [
        {
          "internalType": "bytes32",
          "name": "candidate",
          "type": "bytes32"
        }
      ],
      "name": "totalVotesFor",
      "outputs": [
        {
          "internalType": "uint256",
          "name": "",
          "type": "uint256"
        }
      ],
      "stateMutability": "view",
      "type": "function"
    },
    {
      "inputs": [
        {
          "internalType": "bytes32",
          "name": "candidate",
          "type": "bytes32"
        }
      ],
      "name": "voteForCandidate",
      "outputs": [],
      "stateMutability": "nonpayable",
      "type": "function"
    },
    {
      "inputs": [
        {
          "internalType": "bytes32",
          "name": "candidate",
          "type": "bytes32"
        }
      ],
      "name": "validCandidate",
      "outputs": [
        {
          "internalType": "bool",
          "name": "",
          "type": "bool"
        }
      ],
      "stateMutability": "view",
      "type": "function"
    }
  ],
  "bytecode": "0x608060405234801561000f575f80fd5b5060405161071438038061071483398181016040528101906100319190610248565b806001908051906020019061004792919061004e565b505061028f565b828054828255905f5260205f20908101928215610088579160200282015b8281111561008757825182559160200191906001019061006c565b5b5090506100959190610099565b5090565b5b808211156100b0575f815f90555060010161009a565b5090565b5f604051905090565b5f80fd5b5f80fd5b5f80fd5b5f601f19601f8301169050919050565b7f4e487b71000000000000000000000000000000000000000000000000000000005f52604160045260245ffd5b61010f826100c9565b810181811067ffffffffffffffff8211171561012e5761012d6100d9565b5b80604052505050565b5f6101406100b4565b905061014c8282610106565b919050565b5f67ffffffffffffffff82111561016b5761016a6100d9565b5b602082029050602081019050919050565b5f80fd5b5f819050919050565b61019281610180565b811461019c575f80fd5b50565b5f815190506101ad81610189565b92915050565b5f6101c56101c084610151565b610137565b905080838252602082019050602084028301858111156101e8576101e761017c565b5b835b8181101561021157806101fd888261019f565b8452602084019350506020810190506101ea565b5050509392505050565b5f82601f83011261022f5761022e6100c5565b5b815161023f8482602086016101b3565b91505092915050565b5f6020828403121561025d5761025c6100bd565b5b5f82015167ffffffffffffffff81111561027a576102796100c1565b5b6102868482850161021b565b91505092915050565b6104788061029c5f395ff3fe608060405234801561000f575f80fd5b5060043610610055575f3560e01c80632f265cf714610059578063392e6678146100895780637021939f146100b9578063b13c744b146100e9578063cc9ab26714610119575b5f80fd5b610073600480360381019061006e9190610262565b610135565b60405161008091906102a5565b60405180910390f35b6100a3600480360381019061009e9190610262565b61015f565b6040516100b091906102d8565b60405180910390f35b6100d360048036038101906100ce9190610262565b6101bc565b6040516100e091906102a5565b60405180910390f35b61010360048036038101906100fe919061031b565b6101d0565b6040516101109190610355565b60405180910390f35b610133600480360381019061012e9190610262565b6101f0565b005b5f61013f8261015f565b610147575f80fd5b5f808381526020019081526020015f20549050919050565b5f805f90505b6001805490508110156101b25782600182815481106101875761018661036e565b5b905f5260205f2001540361019f5760019150506101b7565b80806101aa906103c8565b915050610165565b505f90505b919050565b5f602052805f5260405f205f915090505481565b600181815481106101df575f80fd5b905f5260205f20015f915090505481565b6101f98161015f565b610201575f80fd5b60015f808381526020019081526020015f205f828254610221919061040f565b9250508190555050565b5f80fd5b5f819050919050565b6102418161022f565b811461024b575f80fd5b50565b5f8135905061025c81610238565b92915050565b5f602082840312156102775761027661022b565b5b5f6102848482850161024e565b91505092915050565b5f819050919050565b61029f8161028d565b82525050565b5f6020820190506102b85f830184610296565b92915050565b5f8115159050919050565b6102d2816102be565b82525050565b5f6020820190506102eb5f8301846102c9565b92915050565b6102fa8161028d565b8114610304575f80fd5b50565b5f81359050610315816102f1565b92915050565b5f602082840312156103305761032f61022b565b5b5f61033d84828501610307565b91505092915050565b61034f8161022f565b82525050565b5f6020820190506103685f830184610346565b92915050565b7f4e487b71000000000000000000000000000000000000000000000000000000005f52603260045260245ffd5b7f4e487b71000000000000000000000000000000000000000000000000000000005f52601160045260245ffd5b5f6103d28261028d565b91507fffffffffffffffffffffffffffffffffffffffffffffffffffffffffffffffff82036104045761040361039b565b5b600182019050919050565b5f6104198261028d565b91506104248361028d565b925082820190508082111561043c5761043b61039b565b5b9291505056fea2646970667358221220ac492d3dbbf011c3f78f43ea2739859cf45e31afbf2e07e2a0326c94d5ddf9a564736f6c63430008150033",
  "immutableReferences": {},
  "source": "//SPDX-License-Identifier: MIT\r\npragma solidity ^0.8.0;\r\n\r\ncontract Voting{\r\n    mapping (bytes32 => uint256) public votesReceived;\r\n    bytes32[] public candidateList;\r\n\r\n    constructor(bytes32[] memory candidateNames){\r\n        candidateList = candidateNames;\r\n    }\r\n\r\n    function totalVotesFor(bytes32 candidate) public view returns (uint256){\r\n        require(validCandidate(candidate));\r\n        return votesReceived[candidate];\r\n    }\r\n\r\n    function voteForCandidate(bytes32 candidate) public {\r\n        require(validCandidate(candidate));\r\n        votesReceived[candidate] += 1;\r\n    }\r\n\r\n    function validCandidate(bytes32 candidate) public view returns (bool){\r\n        for (uint i = 0; i< candidateList.length; i++){\r\n            if(candidateList[i] == candidate){\r\n                return true;\r\n            }\r\n        }\r\n        return false;\r\n    }\r\n}\r\n",
  "sourcePath": "C:\\Users\\akhos\\OneDrive\\Documents\\source\\Asiye\\VotingDApp\\contracts\\Voting.sol",
  "compiler": {
    "name": "solc",
    "version": "0.8.21+commit.d9974bed.Emscripten.clang"
  },
  "schemaVersion": "3.4.16",
  "updatedAt": "2024-08-04T09:44:12.746Z",
  "devdoc": {
    "kind": "dev",
    "methods": {},
    "version": 1
  },
  "userdoc": {
    "kind": "user",
    "methods": {},
    "version": 1
  }
}